:020000040800F2
:1000000048070020CD010008A108000829040008C5
:100010009D080008750200086B0B00080000000036
:100020000000000000000000000000000D090008B2
:100030007902000800000000E9080008210A000811
:10004000E7010008E7010008E7010008E7010008F0
:10005000E7010008E7010008E7010008E7010008E0
:10006000E7010008E7010008E7010008E7010008D0
:10007000E7010008E7010008E7010008E7010008C0
:10008000E7010008E7010008E7010008E7010008B0
:10009000E7010008E7010008E7010008E7010008A0
:1000A000E7010008E7010008E7010008E701000890
:1000B000E7010008E7010008E7010008E701000880
:1000C000E7010008E7010008E7010008E701000870
:1000D000E7010008850A0008E7010008E7010008B9
:1000E000E7010008E7010008E7010008E701000850
:1000F000E7010008E7010008E7010008E701000840
:10010000E7010008E7010008E7010008E70100082F
:10011000E7010008E7010008E7010008E70100081F
:10012000E7010008E7010008E7010008E70100080F
:1001300000F002F800F03AF80AA090E8000C8244BF
:100140008344AAF10107DA4501D100F02FF8AFF29C
:10015000090EBAE80F0013F0010F18BFFB1A43F0A5
:1001600001031847981B0000B81B0000103A24BF79
:1001700078C878C1FAD8520724BF30C830C144BF0C
:1001800004680C607047000000230024002500264E
:10019000103A28BF78C1FBD8520728BF30C148BFEA
:1001A0000B6070471FB51FBD10B510BD00F033F8D0
:1001B0001146FFF7F7FF00F025FD00F051F803B4FA
:1001C000FFF7F2FF03BC00F0D2FC000009488047B3
:1001D00009480047FEE7FEE7FEE7FEE7FEE7FEE729
:1001E000FEE7FEE7FEE7FEE704480549054A064B41
:1001F00070470000250A000831010008480100206E
:10020000480700204803002048030020704770473B
:10021000704770477047754600F028F8AE460500F5
:100220006946534620F00700854618B020B5FFF711
:10023000DBFFBDE820404FF000064FF000074FF015
:1002400000084FF0000B21F00701AC46ACE8C009F4
:10025000ACE8C009ACE8C009ACE8C0098D467047FD
:100260000446AFF300802046FFF7A9FF004870471F
:10027000E800002000BFFEE770472DE9F04102468C
:1002800000250026002000230024002791F803C049
:100290000CF00F0591F803C00CF0100CBCF1000F2E
:1002A00003D091F802C04CEA050591F800C0BCF1FA
:1002B000000F31D0146800202BE04FF0010C0CFA35
:1002C00000F3B1F800C00CEA03069E4220D183007F
:1002D0004FF00F0C0CFA03F7BC4305FA03FC4CEA91
:1002E000040491F803C0BCF1280F06D14FF0010CB3
:1002F0000CFA00FCC2F814C00AE091F803C0BCF18B
:10030000480F05D14FF0010C0CFA00FCC2F810C0E8
:10031000401C0828D1D31460B1F800C0BCF1FF0F15
:1003200034DD546800202EE000F1080C4FF0010885
:1003300008FA0CF3B1F800C00CEA03069E4221D182
:1003400083004FF00F0C0CFA03F7BC4305FA03FCD3
:100350004CEA040491F803C0BCF1280F05D100F168
:10036000080C08FA0CF8C2F8148091F803C0BCF12C
:10037000480F07D100F1080C4FF0010808FA0CF8FB
:10038000C2F81080401C0828CED35460BDE8F0812C
:10039000F0B50A46002300240021002500F00046A5
:1003A000B6F1004F02D11D4EF16901E01B4E71689C
:1003B000C0F3034583B200F44016B6F5401F08D1E0
:1003C00021F07061154E766826F07066134F7E60DE
:1003D00012E000F48016B6F5801F06D1032606FA57
:1003E00005F4A14341F0706106E0460D360103FAC1
:1003F00006F6B14341F0706122B1460D360103FAB1
:1004000006F6314300F00046B6F1004F02D1034E2C
:10041000F16101E0014E7160F0BD0000000001409B
:10042000416170470161704700BFFEE770B5064645
:10043000002415E004F1B001C8B200F0DBF901209E
:1004400000F0D8F9102000F0D5F9002504E030467E
:1004500000F0FAF9681CC5B2832DF8DB601CC4B249
:10046000082CE7DB70BD000010B500F01BFA02217C
:100470003448FFF7D7FF08213248FFF7D1FF322079
:1004800000F09AFB08212F48FFF7CCFFAE2000F0C8
:10049000B1F9002000F0AEF9102000F0ABF94020D7
:1004A00000F0A8F9812000F0A5F9CF2000F0A2F912
:1004B000A12000F09FF9C82000F09CF9A62000F0D0
:1004C00099F9A82000F096F93F2000F093F9D32085
:1004D00000F090F9002000F08DF9D52000F08AF9A5
:1004E000802000F087F9D92000F084F9F12000F095
:1004F00081F9DA2000F07EF9122000F07BF9DB2090
:1005000000F078F9402000F075F9202000F072F931
:10051000022000F06FF98D2000F06CF9142000F03B
:1005200069F9A42000F066F9A62000F063F9AF2075
:1005300000F060F90020FFF779FF0021084600F085
:1005400043F910BD000C01402DE9F05F82460F46D3
:1005500090469946DDF828B00024002501266CE07D
:100560000024012611E019F8040018F8051088424B
:1005700009D109EB0400407808EB0501497888426D
:1005800001D1260105E0A01CC4B219F804007F289F
:10059000E9DC00BFBAF1760F03DD4FF0000A781CEA
:1005A000C7B23946504600F00FF9012E22D0394625
:1005B000504600F009F9002407E01BF8060000F09F
:1005C00043F9701C86B2601CC4B2102CF5DB07F135
:1005D0000800C1B2504600F0F7F8002407E01BF80D
:1005E000060000F031F9701C86B2601CC4B2102CF9
:1005F000F5DB1CE0681CC5B23946504600F0E4F853
:10060000002404E0002000F01FF9601CC4B2102C8C
:10061000F8DB781CC1B2504600F0D6F8002404E0A4
:10062000002000F011F9601CC4B2102CF8DB0AF1B4
:10063000100000F0FF0AA81CC5B218F80500002839
:100640008ED1BDE8F09F2DE9F04704468846154657
:1006500099464FF0000A002600271FE0E85D203889
:1006600000F0FF0A7E2C04DD002408F1010000F0F8
:10067000FF084146204600F0A7F8002608E00AEBF4
:100680004A0109EB4101885D00F0DEF8701CC6B23A
:10069000062EF4DBA01DC4B2781CC7B2E85D0028AA
:1006A000DCD1BDE8F0872DE9F04706460F469046BD
:1006B000994600250024A24630E018F80A002038A8
:1006C000C5B2782E02DD0026781CC7B23946304606
:1006D00000F07AF8002406E009EB0511085D00F04F
:1006E000B3F8601CC4B2082CF6DB07F10800C1B2F5
:1006F000304600F069F8002407E009EB05112144B9
:10070000087A00F0A1F8601CC4B2082CF5DB06F1F1
:100710000800C6B20AF1010000F0FF0A18F80A004A
:100720000028CAD1BDE8F0872DE9FC470646884677
:10073000154699460A9F002438E0285D7F2817DD7A
:10074000285D8DF80400281940788DF805000020F8
:100750008DF806001848194B01AA41460090304612
:10076000FFF7F2FE06F11000C6B2A01CC4B21DE0F5
:10077000285D8DF8040000208DF80500012F09D1B7
:100780000F4B01AA41463046FFF78DFF06F10800E6
:10079000C6B209E0032F07D10A4B01AA41463046F1
:1007A000FFF751FFB01DC6B2601CC4B2285D00281F
:1007B000C3D1BDE8FC8700009B0F0008280F00088C
:1007C000DB160008000D000870B504460D46B02188
:1007D00001EBE501C8B200F00DF8102141EA141058
:1007E00000F008F804F00F0141F0010000F002F8F9
:1007F00070BD000070B50446082510211148FFF7B0
:100800000FFE02210F48FFF70BFE15E004F08000F9
:1008100020B104210B48FFF705FE03E0042109483D
:10082000FFF7FEFD02210748FFF7FCFD0221054806
:10083000FFF7F6FD6006040E2800A5F10101CDB218
:10084000E4D170BD000C014070B5044608251021AC
:100850001148FFF7E7FD02210F48FFF7E1FD15E022
:1008600004F0800020B104210B48FFF7DBFD03E01A
:1008700004210948FFF7D4FD02210748FFF7D2FD04
:1008800002210548FFF7CCFD6006040E2800A5F103
:100890000101CDB2E4D170BD000C014000BFFEE704
:1008A0007047000008B50121092000F01FF8012160
:1008B0000A48FFF76DFD01210948FFF769FD1E2079
:1008C000ADF8000010208DF8030003208DF8020021
:1008D00069460448FFF7D1FC08BD00000004300061
:1008E00000023000000C01407047000029B1064AA8
:1008F00092690243044B9A6104E0034A926982437D
:10090000014B9A617047000000100240704710B51B
:1009100000F002F810BD00000CB50020019000901E
:100920003348006840F480303149086000BF3048E7
:10093000006800F4003000900198401C019000987D
:1009400018B90198B0F5A06FF1D12948006800F4FA
:10095000003010B10120009001E0002000900098CC
:10096000012843D12348006840F010002149086065
:100970000846006820F0030008600846006840F060
:10098000020008601A4840681949486008464068F3
:1009900048600846406840F4806048600846406807
:1009A00020F47C1048600846406840F4E810486035
:1009B0000846006840F08070086000BF0C4800687E
:1009C00000F000700028F9D00948406820F00300CA
:1009D000074948600846406840F00200486000BF90
:1009E0000348406800F00C000828F9D10CBD000055
:1009F0000010024000200240042808D14FF0E021FE
:100A0000096941F004014FF0E022116107E04FF065
:100A1000E021096921F004014FF0E02211617047E3
:100A20007047000010B51348006840F001001149FC
:100A3000086008464068104908400E49486008466A
:100A400000680E4908400B4908600846006820F419
:100A5000802008600846406820F4FE0048604FF49B
:100A60001F008860FFF753FF4FF0006004490860E3
:100A700010BD0000001002400000FFF8FFFFF6FE6E
:100A800008ED00E010B540F225511D4800F03EF899
:100A900010B31B4800F064F8C4B21A48008800F490
:100AA0000040C8B91748008800F4804060B10A2CA3
:100AB00003D000201349088020E01248008840F449
:100AC00000401049088019E00D2C06D10D4800881F
:100AD00040F480400B49088010E00A480088C0F3C9
:100AE0000D0009490C5407480088401C054908803E
:100AF00008460088C72801DD0020088010BD0000DE
:100B0000003801401C0000202000002070B5024683
:100B1000002400230025002040F66A16B14200D1CF
:100B200000BFC1F3421501F01F03012606FA03F3CB
:100B3000012D02D19689334006E0022D02D1168A9A
:100B4000334001E0968A33400C12012606FA04F481
:100B50001688344013B10CB1012000E0002070BDB4
:100B600001468888C0F30800704700BFFEE70146D1
:100B700000BF704710B56FF00400FFF73DFF0A4853
:100B800000680A49B0FBF1F009490870084600788E
:100B900000EB4001C1EBC0104FF6FF7101EAC0004D
:100BA0000449088010BD00000000002000127A00F7
:100BB00014000020160000200146114A12884A4302
:100BC0004FF0E0235A6100229A611A46126942F0FE
:100BD00001021A6100BF4FF0E022106900F001022B
:100BE0001AB100F48032002AF5D04FF0E0221269E9
:100BF00022F001024FF0E0231A6100229A6170474F
:100C00001600002008B5FFF7B5FF00F05FF8FFF70A
:100C10002BFC012003461FA2002100900520FFF7B6
:100C200083FD032001231FA2192100900020FFF75C
:100C30007BFD032001231EA22C2100900020FFF742
:100C400073FD032001231DA2192100902320FFF72B
:100C50006BFD032001231AA22C2100902320FFF713
:100C600063FD15E000201749086001201649C1F80E
:100C700094014FF49670FFF79FFF0120114908601F
:100C800000201149C1F894014FF49670FFF794FFCA
:100C9000E8E70000D0ECC1D6B6ABB5C44F4C454434
:100CA0000000000054656D703A202020A1E343004D
:100CB00048756D693A20202020250000333200005D
:100CC00036380000980123420000234208B5012174
:100CD0004020FFF70BFE6020ADF8000010208DF8DB
:100CE000030003208DF8020069460448FFF7C5FAA7
:100CF00060210248FFF796FB08BD00000018014084
:100D00000000000000000000002F000000000700AD
:100D1000070000147F147F1400242A7F2A12006227
:100D200064081323003649552250000005030000D3
:100D300000001C224100000041221C000014083E5B
:100D400008140008083E0808000000A06000000821
:100D50000808080800006060000000201008040275
:100D6000003E5149453E0000427F40000042615133
:100D70004946002141454B31001814127F100027CD
:100D800045454539003C4A49493000017109050390
:100D900000364949493600064949291E00003636C1
:100DA0000000000056360000000814224100001424
:100DB0001414141400004122140800020151090601
:100DC00000324959513E007C1211127C007F494982
:100DD0004936003E41414122007F4141221C007FB3
:100DE00049494941007F09090901003E4149497AC1
:100DF000007F0808087F0000417F4100002040413B
:100E00003F01007F08142241007F40404040007FA6
:100E1000020C027F007F0408107F003E4141413EEA
:100E2000007F09090906003E4151215E007F091932
:100E300029460046494949310001017F0101003F2F
:100E40004040403F001F2040201F003F4038403FAF
:100E50000063140814630007087008070061514913
:100E6000454300007F41410000552A552A550000A6
:100E700041417F0000040201020400404040404024
:100E8000000001020400002054545478007F4844BC
:100E9000443800384444442000384444487F0038F3
:100EA0005454541800087E0901020018A4A4A47C1C
:100EB000007F080404780000447D400000408084E6
:100EC0007D00007F102844000000417F4000007C2E
:100ED00004180478007C080404780038444444383A
:100EE00000FC242424180018242418FC007C080486
:100EF000040800485454542000043F444020003C5F
:100F00004040207C001C2040201C003C4030403CE5
:100F1000004428102844001CA0A0A07C0044645475
:100F20004C44141414141414B2E2BEE0C0EBD6DC2A
:100F3000B3A4C3E6BBFDB6C8B8DFC6C2C4B6D2C749
:100F4000CBD1CBF7CEC0D0C7B4F3D0A1B2E9BCC7E8
:100F5000C2BCC9BEB3FDCFB5CDB3D6B5C9E8B5A542
:100F6000BCDBB9ABC7EAD4AAD1AFC3BFB5E7B3D82E
:100F7000D1B9BEADCEB3A1E3A94FD0CDBAC5B0E6CD
:100F8000B1BECAA3D3E0BFD5BCE4B7B5BBD8CDCB07
:100F9000B3F6D0ECC1D6B6ABB5C4001060028C007D
:100FA000FE02F202FE00F800FF000004047E018051
:100FB00047300F10270047807F0000003E22E222CA
:100FC0003E00FE2222222222E20200203F201F11A8
:100FD00011007F4444444444474000040404F48422
:100FE000D4A5A6A4D484F40404040000FE020212D2
:100FF0003A1613121A3242827E00000000FE8292DC
:101000009292FE92929282FE00000080601F000089
:101010001E1212121E40807F00000080808080FF20
:101020008080A0908884828080800000000000FF83
:1010300040211204081020204040000202E2222237
:10104000F22E2222E22222E20202000000FF4040B1
:101050007F4949497F4040FF000000202424A4FE2E
:10106000232220FC04040404FC000010080601FFF5
:10107000010680631901010933C0000000FC24242B
:1010800024FC252624FC242424040040308F808462
:101090004C55252525554C8080800004040404F41B
:1010A0009495969494F4040404040000FE02027AD9
:1010B0004A4A4A4A4A7A0282FE00002020FF202043
:1010C00000F8888888FF8888A8180010301F0888D2
:1010D000601F80432C1028468180000808C84848BB
:1010E0004849CE48484848C80808000000FF444422
:1010F00044447F44444444FF000000008060F807FB
:10110000001CE0010600E01E000000010000FF00DE
:10111000804020130C132040808000101010FF101E
:101120009000FE9180FF8092FE00000444827F01C7
:10113000008082462A132A4682800080602424246C
:10114000A4643F2424A42424A0600000804829092A
:101150004D8D7B0B09284C98000000000202020212
:1011600002FE0202020202FE000000404040404037
:10117000407F404040414241404000000000BE2AC4
:101180002A2AEA2A2A2A3E0000000000444249494D
:1011900049497F49494949414000002020202020F9
:1011A0002020FF20202020202020008080402010B0
:1011B0000C0300030C102040808000000000E000C1
:1011C0000000FF0000002040800000080403000031
:1011D00040807F0000000000010E00404424A494E1
:1011E0008C84FF848C94A4244440004040405F4A97
:1011F0004A4A4A4A4A4A5F40404000404042CC0086
:1012000000008484848484FC0000000000007F20AF
:1012100010003F40404040414070008080829292E8
:10122000929292929292FE808080004040222410FE
:1012300048807F040818242240400080FE8282FEFD
:1012400080FE8282FE8000F800FF00403F0020BF49
:10125000403F40807F00004F807F0000FE225A8682
:1012600020102824E324281020200000FF04082751
:10127000110D41817F010509310000000022322A51
:10128000A6A2622111098101000000004222130B75
:1012900042827E02020A12234600002030AC6330F4
:1012A0000088C8A8998E88A8C888002267221212D0
:1012B0008040300F00003F40407100008060F80720
:1012C00004E4A4A4BFA4A4E4040000010000FF40BF
:1012D000407F4A4A4A4A4A7F404000404042CC0050
:1012E00040A09E8282829EA02020000000003F90AD
:1012F0008840432C102846418080000000F8494A6D
:101300004C48F8484C4A49F80000001010131212DB
:101310001212FF1212121213101000008060F80750
:101320004020900C030C9020404000010000FF0082
:1013300080601F000000FF000000000080402018B7
:10134000068000071820408000000001002070285F
:1013500026212020243860000101000000FE20200A
:101360002000F2121AD61212F2020000001F080426
:1013700002804F20180710204F80002020222222B8
:10138000E2222222E2222222202000804020100C91
:10139000030000003F404040407800404042CC0005
:1013A00020D04C4B48C80808F800000000007F20FF
:1013B000101F1212125F80403F000020100CF31229
:1013C000125292121212F20202000001011F1111B8
:1013D0001115195191513F111101000000F8888831
:1013E0008888FF88888888F800000000001F0808A7
:1013F00008087F888888889F80F000106002CC8071
:1014000080FC4020FF1008F800000004047E01006A
:10141000003F40404F4044474078000000FE0282B9
:10142000828282FA8282828282020080601F404031
:101430004040407F404044584040002030AC632052
:101440001880824222121A2642800022672212123B
:1014500012404242427E42424240002030AC632071
:101460001800084848FF484848080022672212121E
:101470001200020202FF0212221E00000000000001
:101480000C12120C00000000000000000000000020
:1014900000000000000000000000000008F0080844
:1014A000F00808F0002231292600000000070000A3
:1014B00007000007000000000000002022A27E229A
:1014C00022FE2222007C0000FF00004442494848DE
:1014D00048497E484848494A414000808080BEA231
:1014E000A2A2A2A2A2A2BE808080000000000605E7
:1014F0000404044484443C0000000000FE20203F1B
:101500002000FC24E4242223E20000807F0101FF6C
:1015100080601F80412618264180000010101010A6
:10152000D030FF30D0101010100000100804020955
:101530000808FF0808090204081000484AFA0AFED1
:1015400009F949A80000F00000FF0022110B04FF78
:101550000409122300000F40807F0080804020504B
:101560004844C344485020408080000040221A0272
:1015700042827F0202020A12600000100C4424140E
:101580000405060404142444140C000040404141A6
:1015900041417F414141414040000000F8010600C7
:1015A000F0121212F2020202FE000000FF00000020
:1015B0001F1111111F0040807F0000404042CC00ED
:1015C00000FC24A4242222A36200000040201F204B
:1015D00058475048454245485040000000FE02022E
:1015E000F2121212F20202FE00000000007F202020
:1015F000272424242720207F000000404042CC00E4
:1016000000FF4949C949497F8000000040201F2050
:10161000405F48444041424558400000007C404003
:101620004040FF40404040FC000000007C40404003
:1016300040407F4040404040FC00001088C43300E0
:1016400020102824E32428102020000100FF00207F
:10165000110D41817F0105093100001010D0FF906C
:1016600010001010D0FFD010101000040300FF0075
:101670001108040300FF000304080000088848283C
:10168000180FE808080808080800000020110905DC
:1016900041817F010105091120000000F80C0B08B1
:1016A00008F840308F080808F80000007F21212149
:1016B000217F0000004380403F0000060909E6F852
:1016C0000C040202020202041E0000000000071FB8
:1016D000302040404040402010000000000000004A
:1016E0000000000000000000000000000000F80002
:1016F000000000000000333000000000100C061055
:101700000C0600000000000000000040C07840C04F
:10171000784000043F04043F040400007088FC0883
:10172000300000001820FF211E0000F008F000E04B
:1017300018000000211C031E211E0000F008887004
:101740000000001E2123241927211010160E00006E
:101750000000000000000000000000000000E01891
:10176000040200000000071820400000020418E0F6
:101770000000000040201807000000404080F0807A
:101780004040000202010F01020200000000F000D0
:101790000000000101011F01010100000000000024
:1017A00000000080B0700000000000000000000099
:1017B0000000000001010101010101000000000022
:1017C0000000000030300000000000000000008039
:1017D000601804006018060100000000E01008080E
:1017E00010E000000F102020100F00001010F80073
:1017F0000000000020203F202000000070080808A2
:1018000088700000302824222130000030088888A9
:101810004830000018202020110E000000C02010C9
:10182000F8000000070424243F240000F8088888FA
:101830000808000019212020110E0000E0108888FF
:10184000180000000F112020110E0000380808C8F1
:101850003808000000003F00000000007088080801
:10186000887000001C222121221C0000E0100808C2
:1018700010E0000000312222110F00000000C0C063
:101880000000000000003030000000000000800078
:101890000000000000806000000000000080402088
:1018A00010080000010204081020004040404040A1
:1018B0004040000404040404040400000810204014
:1018C0008000000020100804020100007048080891
:1018D00008F0000000003036010000C030C828E8E1
:1018E00010E0000718272423140B000000C038E084
:1018F000000000203C23020227382008F88888884E
:10190000700000203F202020110E00C03008080881
:10191000083800071820202010080008F8080808D8
:1019200010E000203F202020100F0008F88888E8F1
:10193000081000203F20202320180008F88888E89D
:10194000081000203F200003000000C030080808F5
:1019500038000007182020221E020008F8080000A6
:1019600008F808203F210101213F20000808F8085D
:101970000800000020203F2020000000000808F898
:10198000080800C08080807F00000008F888C02818
:10199000180800203F20012638200008F808000021
:1019A000000000203F20202020300008F8F800F838
:1019B000F80800203F003F003F200008F830C0003A
:1019C00008F808203F200007183F00E0100808082A
:1019D00010E0000F10202020100F0008F808080861
:1019E00008F000203F210101010000E01008080874
:1019F00010E0000F18242438504F0008F888888819
:101A0000887000203F2000030C30200070880808F8
:101A10000838000038202121221C00180808F80886
:101A20000818000000203F2000000008F80800000F
:101A300008F808001F202020201F000878880000D8
:101A4000C83808000007380E010000F80800F80048
:101A500008F800033C0700073C0300081868808072
:101A600068180820302C03032C30200838C800C820
:101A70003808000000203F2000000010080808C8B7
:101A80003808002038262120201800000000FE021F
:101A90000202000000007F40404000000C30C00007
:101AA000000000000000010638C00000020202FE33
:101AB000000000004040407F0000000000040202DF
:101AC0000204000000000000000000000000000010
:101AD00000000080808080808080800002020400FE
:101AE0000000000000000000000000000080808076
:101AF0008000000019242222223F2008F800808064
:101B0000000000003F112020110E00000000808026
:101B1000800000000E1120202011000000008080B5
:101B200088F800000E112020103F200000808080E7
:101B3000800000001F222222221300008080F088F3
:101B40008888180020203F2020000000008080802E
:101B5000808000006B94949493600008F80080806B
:101B6000800000203F210000203F20008098980046
:101B70000000000020203F2020000000000080988E
:101B800098000000C08080807F000008F80000807E
:101B9000808000203F24022D302000000808F8003B
:101BA0000000000020203F202000008080808080F6
:101BB000808000203F20003F20003F808000808008
:101BC000800000203F210000203F20000080808016
:101BD000800000001F202020201F008080008080C7
:101BE00000000080FFA12020110E00000000808076
:101BF000808000000E112020A0FF80808080008067
:101C000080800020203F2120000100000080808093
:101C10008080000033242424241900008080E08088
:101C20008000000000001F202000008080000000D5
:101C3000808000001F202020103F20808080000036
:101C400080808000010E3008060100808000800046
:101C50008080800F300C030C300F000080800080EB
:101C60008080000020312E0E312000808080000016
:101C700080808080818E70180601000080808080C6
:101C80008080000021302C222130000000000080E4
:101C90007C020200000000003F404000000000FF06
:101CA00000000000000000FF0000000002027C8035
:101CB0000000000040403F0000000000060101025B
:101CC000020404000000000000000000383800009A
:101CD0000000000000000000000000000080C0E0E4
:101CE000F0F8FCF8F0E0C080000000000000010304
:101CF000070F1F0F07030100000000001C1D000854
:101D000000000020200000006C0100083C1D0008BD
:101D100020000020280700008801000800A24A04D3
:101D2000000000000000000001020304060708098B
:0C1D3000000000000000000000000000A7
:04000005080001CD21
:00000001FF
